S015000071756575655F70726F6A6563742E7372656394
S11300000C942A000C943F000C943F000C943F0085
S11300100C943F000C943F000C943F000C943F0060
S11300200C943F000C943F000C943F000C943F0050
S11300300C943F000C943F000C943F000C943F0040
S11300400C943F000C943F000C943F000C943F0030
S11300500C943F0011241FBECFE5D8E0DEBFCDBF16
S113006010E0A0E6B0E0E4E2F6E002C005900D92F4
S1130070A037B107D9F70E9404030C9410030C9421
S11300800000442319F04130C9F10895813091F002
S113009028F08230D9F0833029F108952AB381E021
S11300A090E002C0880F991F6A95E2F78095822339
S11300B08ABB089527B381E090E002C0880F991F9E
S11300C06A95E2F78095822387BB089524B381E083
S11300D090E002C0880F991F6A95E2F78095822309
S11300E084BB089521B381E090E002C0880F991F7A
S11300F06A95E2F78095822381BB0895813089F067
S113010028F08230C9F0833011F108952AB381E0D8
S113011090E002C0880F991F6A95E2F7822B8ABB90
S1130120089527B381E090E002C0880F991F6A9573
S1130130E2F7822B87BB089524B381E090E002C0EC
S1130140880F991F6A95E2F7822B84BB089521B327
S113015081E090E002C0880F991F6A95E2F7822B34
S113016081BB0895442319F04130C9F108958130C9
S113017091F028F08230D9F0833029F108952BB31F
S113018081E090E002C0880F991F6A95E2F780959C
S113019082238BBB089528B381E090E002C0880FCE
S11301A0991F6A95E2F78095822388BB089525B349
S11301B081E090E002C0880F991F6A95E2F780956C
S11301C0822385BB089522B381E090E002C0880FAA
S11301D0991F6A95E2F78095822382BB0895813046
S11301E089F028F08230C9F0833011F108952BB3DF
S11301F081E090E002C0880F991F6A95E2F7822B94
S11302008BBB089528B381E090E002C0880F991F4A
S11302106A95E2F7822B88BB089525B381E090E0CC
S113022002C0880F991F6A95E2F7822B85BB089557
S113023022B381E090E002C0880F991F6A95E2F72B
S1130240822B82BB0895813089F028F08230C9F076
S1130250833011F1089589B390E002C09595879594
S11302606A95E2F78170FA018083089586B390E07D
S113027002C0959587956A95E2F78170FA018083AB
S1130280089580B390E002C0959587956A95E2F74A
S11302908170FA018083089580B390E002C095953F
S11302A087956A95E2F78170FA0180830895813019
S11302B089F028F08230C9F0833011F108952BB30E
S11302C081E090E002C0880F991F6A95E2F7822BC3
S11302D08BBB089528B381E090E002C0880F991F7A
S11302E06A95E2F7822B88BB089525B381E090E0FC
S11302F002C0880F991F6A95E2F7822B85BB089587
S113030022B381E090E002C0880F991F6A95E2F75A
S1130310822B82BB089541E060E083E00E944100AB
S113032041E061E083E00E94410041E062E083E05B
S11303300E94410041E063E083E00E94410040E00C
S113034064E083E00E94410040E065E083E00E94B5
S1130350410040E066E083E00E94410040E067E045
S113036083E00E94410064E083E00E94570165E05D
S113037083E00E94570166E083E00E94570167E032
S113038083E00E94570141E060E083E00E94B200F4
S113039041E061E083E00E94B20041E062E083E07A
S11303A00E94B20041E063E083E00E94B20008953D
S11303B0FF920F931F93CF93DF931F92CDB7DEB7B6
S11303C01982F12C00E037C040E0602F83E00E94E6
S11303D0B20014E028C0AE014F5F5F4F612F83E08D
S11303E00E942301898181111DC0E12FF0E034971F
S11303F0EE0FFF1FEE0FFF1FE05AFF4FE00FF11D3E
S1130400F08007C0AE014F5F5F4F612F83E00E9411
S1130410230189818823B1F38FE39CE90197F1F7E4
S113042000C000001F5F1830B0F241E0602F83E08D
S11304300E94B2000F5F043038F28F2D0F90DF91CD
S1130440CF911F910F91FF900895CF93C82F40E053
S113045062E081E00E94B20040E061E081E00E943D
S1130460B20040E063E081E00E94B2008BB39C2FB5
S1130470907F8F70892B8BBB41E063E081E00E9409
S1130480B2008FE99FE00197F1F700C0000040E05F
S113049063E081E00E94B20020E1C29FC001112408
S11304A09BB39F70892B8BBB41E063E081E00E948A
S11304B0B2008FE99FE00197F1F700C0000040E02F
S11304C063E081E00E94B2008FE19EE40197F1F7BE
S11304D000C00000CF91089541E061E081E00E94F6
S11304E0410041E062E081E00E94410041E063E0BC
S11304F081E00E94410041E064E080E00E9441000C
S113050041E065E080E00E94410041E066E080E077
S11305100E94410041E067E080E00E9441002FEF2B
S113052081EE94E0215080409040E1F700C000004B
S113053083E30E94250282E30E94250288E20E944E
S113054025028CE00E94250281E00E9425022FEF03
S113055089EF90E0215080409040E1F700C0000016
S113056086E00E94250282E00E9425028FE19EE43B
S11305700197F1F700C000000895CF93C82F40E021
S113058062E081E00E94B20041E061E081E00E940B
S1130590B20040E063E081E00E94B2008BB39C2F84
S11305A0907F8F70892B8BBB41E063E081E00E94D8
S11305B0B2008FE99FE00197F1F700C0000040E02E
S11305C063E081E00E94B20020E1C29FC0011124D7
S11305D09BB39F70892B8BBB41E063E081E00E9459
S11305E0B2008FE99FE00197F1F700C0000040E0FE
S11305F063E081E00E94B2008FE19EE40197F1F78D
S113060000C00000CF9108950E946C020E948B01EB
S11306100E94D8018823E1F3805D0E94BD02F8CFD7
S1070620F894FFCF78
S11306240104072A0205083003060923414243440E
S9030000FC
