S015000071756575655F70726F6A6563742E7372656394
S11300000C942A000C943F000C943F000C943F0085
S11300100C943F000C943F000C943F000C943F0060
S11300200C943F000C943F000C943F000C943F0050
S11300300C943F000C943F000C943F000C943F0040
S11300400C943F000C943F000C943F000C943F0030
S11300500C943F0011241FBECFE5D8E0DEBFCDBF16
S113006010E0A0E6B0E0EEE9F5E102C005900D92E3
S1130070AE3FB107D9F70E9460030C94CD0A0C94EB
S11300800000442319F0413089F10895813081F052
S113009028F08230B9F08330F9F008952AB381E072
S11300A090E001C0880F6A95EAF7809582232EC0FC
S11300B027B381E090E001C0880F6A95EAF7809544
S11300C082232EC024B381E090E001C0880F6A959A
S11300D0EAF7809582232EC021B381E090E001C02D
S11300E0880F6A95EAF7809582232EC0813081F0CB
S11300F028F08230B9F08330F9F008952AB381E012
S113010090E001C0880F6A95EAF7822B8ABB0895B4
S113011027B381E090E001C0880F6A95EAF7822B4B
S113012087BB089524B381E090E001C0880F6A95ED
S1130130EAF7822B84BB089521B381E090E001C0EB
S1130140880F6A95EAF7822B81BB0895442319F03E
S1130150413089F10895813081F028F08230B9F07E
S11301608330F9F008952BB381E090E001C0880F4B
S11301706A95EAF7809582232EC028B381E090E047
S113018001C0880F6A95EAF7809582232EC025B3B3
S113019081E090E001C0880F6A95EAF78095822398
S11301A02EC022B381E090E001C0880F6A95EAF77F
S11301B0809582232EC0813081F028F08230B9F0FE
S11301C08330F9F008952BB381E090E001C0880FEB
S11301D06A95EAF7822B8BBB089528B381E090E0FF
S11301E001C0880F6A95EAF7822B88BB089525B36E
S11301F081E090E001C0880F6A95EAF7822B85BB05
S1130200089522B381E090E001C0880F6A95EAF76F
S1130210822B82BB0895FA01813041F028F08230AC
S113022039F0833029F0089589B303C086B301C03F
S113023080B390E002C0959587956A95E2F7817046
S113024080830895813081F028F08230B9F08330C2
S1130250F9F008952BB381E090E001C0880F6A950E
S1130260EAF7822B8BBB089528B381E090E001C0AC
S1130270880F6A95EAF7822B88BB089525B381E03D
S113028090E001C0880F6A95EAF7822B85BB089538
S113029022B381E090E001C0880F6A95EAF7822BCF
S11302A082BB089541E060E083E00E94410041E0A8
S11302B061E083E00E94410041E062E083E00E944B
S11302C0410041E063E083E00E94410040E064E0DB
S11302D083E00E94410040E065E083E00E94410029
S11302E040E066E083E00E94410040E067E083E094
S11302F00E94410064E083E00E94220165E083E003
S11303000E94220166E083E00E94220167E083E00C
S11303100E94220141E060E083E00E94A60041E0E7
S113032061E083E00E94A60041E062E083E00E9475
S1130330A60041E063E083E00C94A600BF92CF9254
S1130340DF92EF92FF920F931F93CF93DF931F924D
S1130350CDB7DEB7198280E6E82E80E0F82E95E46A
S1130360B92E10E040E0612F83E00E94A6006701EF
S113037004E0AE014F5F5F4F602F83E00E940B01EA
S11303808981811113C0F601B0808981811108C06F
S1130390AE014F5F5F4F602F83E00E940B01F5CFEA
S11303A08FE39CE90197F1F700C000000F5F94E030
S11303B0C90ED11C0830E9F641E0612F83E00E94A8
S11303C0A6001F5FEFEFEE1AFE0A143059F68B2DCC
S11303D00F90DF91CF911F910F91FF90EF90DF90DD
S11303E0CF90BF900895CF93C82F40E062E081E0A2
S11303F00E94A60040E061E081E00E94A60040E087
S113040063E081E00E94A6008BB39C2F907F8F70E5
S1130410892B8BBB41E063E081E00E94A6008FE959
S11304209FE00197F1F700C0000040E063E081E045
S11304300E94A6002BB330E1C39FC0011124922F68
S11304409F70892B8BBB41E063E081E00E94A60092
S11304508FE99FE00197F1F700C0000040E063E0FE
S113046081E00E94A6008FE19EE40197F1F700C0AD
S11304700000CF91089541E061E081E00E944100D5
S113048041E062E081E00E94410041E063E081E0FC
S11304900E94410041E064E080E00E94410041E0AC
S11304A065E080E00E94410041E066E080E00E9457
S11304B0410041E067E080E00E9441002FEF81EEBF
S11304C094E0215080409040E1F700C0000083E3B5
S11304D00E94F30182E30E94F30188E20E94F30187
S11304E08CE00E94F30181E00E94F3012FEF89EF79
S11304F090E0215080409040E1F700C0000086E089
S11305000E94F30182E00E94F3018FE19EE40197CF
S1130510F1F700C000000895CF93C82F40E062E0D7
S113052081E00E94A60041E061E081E00E94A60013
S113053040E063E081E00E94A6008BB39C2F907F93
S11305408F70892B8BBB41E063E081E00E94A600A1
S11305508FE99FE00197F1F700C0000040E063E0FD
S113056081E00E94A6002BB330E1C39FC001112497
S1130570922F9F70892B8BBB41E063E081E00E9446
S1130580A6008FE99FE00197F1F700C0000040E06A
S113059063E081E00E94A6008FE19EE40197F1F7F9
S11305A000C00000CF9108950F931F93CF938C0147
S11305B0C0E0F801EC0FF11D8081882321F00E9436
S11305C08C02CF5FF6CFCF911F910F910895CF93F7
S11305D0DF9300D0CDB7DEB790E8998390EC9A838F
S11305E0FE01E80FF11D8181860F0F900F90DF91BE
S11305F0CF910C94F30181E00C94F3014F925F923C
S11306006F927F928F929F92AF92BF92CF92DF921E
S1130610EF92FF924B015C0197FF0BC08DE20E94A9
S11306208C02B094A09490948094811C911CA11C81
S1130630B11C61E070E080E090E03AE0432E512C80
S1130640612C712C81149104A104B104A9F0AAE0D5
S1130650B0E09B01AC010E94910A6B017C01C501D1
S1130660B401A30192010E94720A6C0D7D1D8E1DBE
S11306709F1D49015A01E6CF2AE0C22ED12CE12C5C
S1130680F12C62307105810591056CF0A70196018A
S11306900E94720A49015A0180E3860F0E948C026B
S11306A0B401C501EECFFF90EF90DF90CF90BF90E3
S11306B0AF909F908F907F906F905F904F90089530
S11306C0CF93DF93CDB7DEB729970FB6F894DEBF8B
S11306D00FBECDBF0E943B020E9452011D8280E7E3
S11306E090E00E94D40260E081E00E94E70281E889
S11306F090E00E94D4022FEF83E294EF21508040D7
S11307009040E1F700C000000E94FB0260E080E03E
S11307100E94E7028DE890E00E94D40260E081E04C
S11307200E94E702C12CF12C00E2712C0E949E0170
S1130730182F8534F1F1739421E0721661F085E08D
S1130740781689F197E079122FC0FF24F394F10E03
S11307501A3020F00FC08A3020F4082F105D602E6C
S113076001C0682E812F0E948C0227E0721631F09E
S1130770062DDCCF812F0E948C02602E8FEF97EA2A
S113078021E6815090402040E1F700C000000E9423
S1130790FB0260E080E00E94E7028FE990E00E94A3
S11307A0D402062D0AC0C12E1A30C0F2812F0E9435
S11307B08C02602E86E08715D8F6412C512C32012C
S11307C01A3209F449C00E949E01182F8534D9F3C6
S11307D08A32D1F18F32D9F020E030E040E251E4A6
S11307E0C301B2010E94F9094B015C01612F70E061
S11307F080E090E00E944209A50194010E9429082A
S11308002B013C0180E3810F0E948C02D9CF8FE23F
S11308100E948C020E949E01182F8534D9F380E334
S1130820810F0E948C02612F70E080E090E00E94B2
S113083042099B01AC01C301B2010E949A082B0139
S11308403C011A3209F0BCCF60E081E00E94E7026B
S11308508DEA90E00E94D4021E821F8218861986B7
S11308600E949E01182F8534D9F38A3209F442C0BC
S11308708F32F9F020E030E040E251E46E817F8174
S1130880888599850E94F9094B015C01612F70E00C
S113089080E090E00E944209A50194010E94290889
S11308A06E837F838887998780E3810F0E948C02FF
S11308B0D7CF8FE20E948C020E949E01182F8534AC
S11308C0D9F380E3810F0E948C02612F70E080E0F5
S11308D090E00E9442099B01AC016E817F81888572
S11308E099850E949A086E837F83888799871A3234
S11308F009F0B6CF043409F0BEC00E94FB0260E0E8
S113090080E00E94E7028BEB90E00E94D402C12CAD
S11309100E949E018534E1F38A3251F0282F9AE037
S1130920C99E200D1124C22E805D0E948C02F0CF3E
S113093060E081E00E94E70283EF90E00E94D4022D
S1130940A12C0E949E018534E1F38A3251F0282FB4
S11309509AE0A99E200D1124A22E805D0E948C0293
S1130960F0CF0E94FB022E813F8148855985C30147
S1130970B2010E9495081816E4F00E94FB0260E0A0
S113098080E00E94E70281EC90E00E94D40200E043
S11309900E949E018534E1F38A3209F4B7C0282FFE
S11309A09AE0099F200D1124022F805D0E948C0281
S11309B0EFCF00E0CE0105964C01EF2C2E813F8154
S11309C048855985C301B2010E948A05182F0E94E7
S11309D0FB0260E080E00E94E7028D81863231F5FF
S11309E02E813F8148855985C301B2010E94F409D3
S11309F018167CF48CEC90E00E94D4028FE28F0DE8
S1130A000E948C0282ED90E00E94D4028EE28F0D4F
S1130A1013C08CEC90E00E94D40280E30E948C020C
S1130A2082ED90E00E94D40281E306C08CEC90E059
S1130A300E94D4028D81805D0E948C0260E081E07E
S1130A40163269F40E94E70287ED90E00E94D40216
S1130A5066E270E080E090E00E94FE024FC00E94D7
S1130A60E70287ED90E00E94D402111148C080E3B0
S1130A700E948C0243C00D3409F04BC091E0C912AE
S1130A803DC08E010F5F1F4F2E813F8148855985E0
S1130A90C301B2010E94BC070E94FB0260E080E037
S1130AA00E94E7028EED90E00E94D402698170E01A
S1130AB080E090E00E94FE0281EE90E00E94D40269
S1130AC06A8170E080E090E00E94FE0260E081E0D4
S1130AD00E94E70288EE90E00E94D4026B8170E0ED
S1130AE080E090E00E94FE028BEE90E00E94D4022F
S1130AF06C8170E080E090E00E94FE02FFCF612FE5
S1130B0070E080E090E00E94FE02F8CF0E94FB02B9
S1130B1051CFF4CF2F923F924F925F926F927F9278
S1130B208F929F92AF92BF92CF92DF92EF92FF92F9
S1130B300F931F93CF93DF93CDB7DEB72E970FB6E6
S1130B40F894DEBF0FBECDBF2B013C0129833A834D
S1130B504B835C83E986CA862A2C9E828D829B0104
S1130B60AC0160E070E080E89FE30E949A084B01CA
S1130B705C010E9413096F8329813A814B815C8156
S1130B8060E070E080E89FE30E949A080E941309E5
S1130B90688729813A814B815C81C301B2010E943B
S1130BA0F40918160CF0B7C0A301920169817A8187
S1130BB08B819C810E949A086B877C878D879E8796
S1130BC06E2D70E080E090E00E9444092B853C8506
S1130BD04D855E850E9428086B017C0129813A813C
S1130BE04B815C81C301B2010E9428089B01AC01C6
S1130BF0C701B6010E949A080E941309162F612F9B
S1130C0070E080E090E00E944409A50194010E94F4
S1130C1028080E941309162F70E080E090E00E94DB
S1130C2044096B017C019B01AC01C301B2010E9428
S1130C30F9090E940C09062FA701960169817A819E
S1130C408B819C810E94F9092B853C854D855E85AD
S1130C500E9428080E940C09061B2985201779F296
S1130C60ED81FE810083A7019601C501B4010E94B4
S1130C7029080E941309162FFA856F2F70E080E06F
S1130C8090E00E9444096B017C019B01AC01C50109
S1130C90B4010E94F409181624F4ED81FE81108237
S1130CA00EC1A7019601C501B4010E94950818164A
S1130CB00CF1FA85F117F0F4A7019601C301B20112
S1130CC00E94F9090E941309062FA7019601698160
S1130CD07A818B819C810E94F9092B853C854D8505
S1130CE05E850E9428080E941309061BED81FE817F
S1130CF00083E5C088856F810E94660A911106C051
S1130D00E984EA94ED81FE81E082D9C086E2ED8136
S1130D10FE818083D4C029813A814B815C81C301E7
S1130D20B2010E949508811105C0ED81FE81008306
S1130D3010E079C0602F70E080E090E00E944409E8
S1130D406B017C01A301920169817A818B819C8171
S1130D500E9428089B01AC01C701B6010E949A08B1
S1130D600E941309162F612F70E080E090E00E942A
S1130D704409A50194010E9428080E941309162F12
S1130D8070E080E090E00E9444096B017C019B01CB
S1130D90AC01C301B2010E94F9090E940C09302E72
S1130DA0360EA701960169817A818B819C810E940C
S1130DB0F9090E940C09361AF985F315A1F2ED819F
S1130DC0FE813082A7019601C501B4010E94290861
S1130DD00E941309162FFA85F61708F56F2F70E095
S1130DE080E090E00E9444096B017C019B01AC010E
S1130DF0C301B2010E94F9090E940C09B62EA70191
S1130E00960169817A818B819C810E94F9090E94F3
S1130E100C09B61AB00EED81FE81B08204C086E2E0
S1130E20ED81FE81808321101DC0602F70E0615030
S1130E307109072E000C880B990B0E9444096B0161
S1130E407C0129813A814B815C81CA01B9010E94EC
S1130E5029089B01AC01C701B6010E949A080E94AF
S1130E60130970C0E22CF12CB7010F2C000C880B75
S1130E70990B0E9444094B015C01612F70E080E0F2
S1130E8090E00E944409A30192010E94F9099B0188
S1130E90AC01C501B4010E949508181614F460E071
S1130EA051C010E001501109E00EF11EF885FE9DBD
S1130EB0602D11242F81229D6019112443C022200A
S1130EC071F3312C612F70E080E090E00E944409BE
S1130ED0A30192010E94F9096B017C01B101032C69
S1130EE0000C880B990B0E944409A70196010E94EB
S1130EF0950887FF0AC0E884FF81EF1A21E0221ACF
S1130F003108E29C602D11241DC08885682F70E093
S1130F10EF816E1B7109072E000C880B990B0E9440
S1130F2044094B015C0120E030E040E050E4C7019B
S1130F30B6010E9428089B01AC01C501B4010E94BE
S1130F40F9098DCF862F2E960FB6F894DEBF0FBE0B
S1130F50CDBFDF91CF911F910F91FF90EF90DF9064
S1130F60CF90BF90AF909F908F907F906F905F9045
S1130F704F903F902F9008954F925F926F927F927F
S1130F808F929F92AF92BF92CF92DF92EF92FF9295
S1130F900F931F93CF93DF936B017C0129013A01D7
S1130FA0E8019B01AC01C301B2010E9428084B0176
S1130FB05C019B01AC01C301B2010E94F9092B0140
S1130FC03C01A5019401C701B6010E949A080E9440
S1130FD013096883A7019601C701B6010E94F909A4
S1130FE0A30192010E949A080E9413096983A50132
S1130FF0940160E070E080E89FE30E949A0820E09A
S113100030E040E752E40E94F9090E9413096A8320
S1131010A3019201C701B6010E949A0820E030E0C2
S113102040E752E40E94F9090E9413096B83DF919F
S1131030CF911F910F91FF90EF90DF90CF90BF90D1
S1131040AF909F908F907F906F905F904F90089596
S11310505058BB27AA270E9440080C94BA090E9442
S1131060AC0938F00E94B30920F039F49F3F19F419
S113107026F40C94A9090EF4E095E7FB0C94A3095B
S1131080E92F0E94CB0958F3BA1762077307840744
S1131090950720F079F4A6F50C94ED090EF4E0958B
S11310A00B2EBA2FA02D0B01B90190010C01CA011E
S11310B0A0011124FF27591B99F0593F50F4503EC9
S11310C068F11A16F040A22F232F342F4427585FBB
S11310D0F3CF469537952795A795F0405395C9F7D3
S11310E07EF41F16BA0B620B730B840BBAF091508B
S11310F0A1F0FF0FBB1F661F771F881FC2F70EC02A
S1131100BA0F621F731F841F48F4879577956795FC
S1131110B795F7959E3F08F0B0CF9395880F08F0E8
S11311209927EE0F9795879508950E947F0908F4F3
S113113081E008950E94AE080C94BA090E94B30994
S113114058F00E94AC0940F029F45F3F29F00C9458
S1131150A30951110C94EE090C94A9090E94CB091E
S113116068F39923B1F3552391F3951B550BBB27D2
S1131170AA2762177307840738F09F5F5F4F220F17
S1131180331F441FAA1FA9F335D00E2E3AF0E0E80E
S113119032D091505040E695001CCAF72BD0FE2F58
S11311A029D0660F771F881FBB1F261737074807EC
S11311B0AB07B0E809F0BB0B802DBF01FF279358A4
S11311C05F4F3AF09E3F510578F00C94A3090C94BC
S11311D0EE095F3FE4F3983ED4F3869577956795DF
S11311E0B795F7959F5FC9F7880F911D96958795D9
S11311F097F90895E1E0660F771F881FBB1F6217F8
S113120073078407BA0720F0621B730B840BBA0BB5
S1131210EE1F88F7E09508950E9413096894B111B0
S11312200C94EE0908950E94D30988F09F5798F012
S1131230B92F9927B751B0F0E1F0660F771F881FD7
S1131240991F1AF0BA95C9F714C0B13091F00E94F1
S1131250ED09B1E008950C94ED09672F782F8827E4
S1131260B85F39F0B93FCCF3869577956795B39518
S1131270D9F73EF490958095709561957F4F8F4F87
S11312809F4F0895E89409C097FB3EF4909580958C
S1131290709561957F4F8F4F9F4F9923A9F0F92F38
S11312A096E9BB279395F695879577956795B795B6
S11312B0F111F8CFFAF4BB0F11F460FF1BC06F5F9C
S11312C07F4F8F4F9F4F16C0882311F096E911C0AE
S11312D0772321F09EE8872F762F05C0662371F0CF
S11312E096E8862F70E060E02AF09A95660F771FE3
S11312F0881FDAF7880F9695879597F90895990FBF
S11313000008550FAA0BE0E8FEEF16161706E807CB
S1131310F907C0F012161306E407F50798F0621BEC
S1131320730B840B950B39F40A2661F0232B242BC1
S1131330252B21F408950A2609F4A140A6958FEFE0
S1131340811D811D089597F99F6780E870E060E032
S113135008959FEF80EC089500240A94161617064A
S113136018060906089500240A9412161306140692
S113137005060895092E0394000C11F4882352F0F5
S1131380BB0F40F4BF2B11F460FF04C06F5F7F4FAD
S11313908F4F9F4F089557FD9058440F551F59F094
S11313A05F3F71F04795880F97FB991F61F09F3F4E
S11313B079F087950895121613061406551FF2CF77
S11313C04695F1DF08C0161617061806991FF1CFC7
S11313D086957105610508940895E894BB276627EE
S11313E07727CB0197F908950E947F0908F48FEFBE
S11313F008950E940C0A0C94BA090E94AC0938F0B2
S11314000E94B30920F0952311F00C94A3090C94C5
S1131410A90911240C94EE090E94CB0970F3959F3D
S1131420C1F3950F50E0551F629FF001729FBB27D7
S1131430F00DB11D639FAA27F00DB11DAA1F649F73
S11314406627B00DA11D661F829F2227B00DA11D26
S1131450621F739FB00DA11D621F839FA00D611DAC
S1131460221F749F3327A00D611D231F849F600DCD
S1131470211D822F762F6A2F11249F5750409AF0F6
S1131480F1F088234AF0EE0FFF1FBB1F661F771F82
S1131490881F91505040A9F79E3F510580F00C944D
S11314A0A3090C94EE095F3FE4F3983ED4F38695C8
S11314B077956795B795F795E7959F5FC1F7FE2BED
S11314C0880F911D9695879597F90895991B79E052
S11314D004C0991F961708F0961B881F7A95C9F7C0
S11314E080950895052E97FB1EF400940E94890AA6
S11314F057FD07D00E949C0A07FC03D04EF40C94BD
S1131500890A50954095309521953F4F4F4F5F4F35
S1131510089590958095709561957F4F8F4F9F4F5B
S113152008950E94BE0AA59F900DB49F900DA49F9C
S1131530800D911D11240895A1E21A2EAA1BBB1B34
S1131540FD010DC0AA1FBB1FEE1FFF1FA217B3078B
S1131550E407F50720F0A21BB30BE40BF50B661FA1
S1131560771F881F991F1A9469F760957095809565
S113157090959B01AC01BD01CF010895A29FB001DC
S1131580B39FC001A39F700D811D1124911DB29FB3
S1111590700D811D1124911D0895F894FFCF54
S113159E0104072A020508000306092F4D202D44D5
S11315AE5175657565696E67205468656F7279202B
S11315BE002020202050524F4A454354004B656E64
S11315CE64616C6C204E6F746174692E2E3A0061E6
S11315DE72726976616C20726174653A0073657219
S11315EE7669636520726174653A0054494D453AD3
S11315FE00696E697420637573743A006E287429D9
S113160E3A00206F7220007771286E293A004C3A06
S113161E00202C204C713A00573A0020202C2057E1
S111162E713A00637573746F6D65723A000053
S9030000FC
